:020000040800F2
:1000000068060020290200083102000833020008B7
:10001000350200083702000839020008000000001D
:100020000000000000000000000000003B0200088B
:100030003D020008000000003F02000841020008E5
:10004000430200084302000843020008430200087C
:10005000430200084302000843020008430200086C
:10006000430200084302000843020008430200085C
:10007000430200084302000843020008430200084C
:10008000430200084302000843020008430200083C
:10009000430200084302000843020008430200082C
:1000A000430200084302000843020008430200081C
:1000B000430200084302000843020008430200080C
:1000C00043020008430200084302000843020008FC
:1000D00043020008430200084302000843020008EC
:1000E00043020008430200084302000843020008DC
:1000F00043020008430200084302000843020008CC
:1001000043020008430200084302000843020008BB
:1001100043020008430200084302000843020008AB
:10012000430200084302000843020008430200089B
:10013000430200084302000843020008430200088B
:10014000430200084302000843020008430200087B
:10015000430200084302000843020008430200086B
:10016000430200084302000843020008430200085B
:100170004302000843020008430200080000000098
:10018000430200084302000800F002F800F03CF8C7
:100190000AA090E8000C82448344AAF10107DA45E2
:1001A00001D100F031F8AFF2090EBAE80F0013F0F8
:1001B000010F18BFFB1A43F001031847E0040000C9
:1001C00000050000103A24BF78C878C1FAD8520759
:1001D00024BF30C830C144BF04680C6070470000C1
:1001E0000023002400250026103A28BF78C1FBD840
:1001F000520728BF30C148BF0B6070471FB500F0E1
:1002000047FA1FBD10B510BD00F031F81146FFF7D9
:10021000F5FF00F0D7F900F04FF803B4FFF7F2FF55
:1002200003BC00F057F80000094880470948004720
:10023000FEE7FEE7FEE7FEE7FEE7FEE7FEE7FEE796
:10024000FEE7FEE704480549054A064B70470000F3
:10025000D504000889010008680000206806002015
:10026000680200206802002070477047704775469A
:1002700000F02CF8AE4605006946534620F0070012
:10028000854618B020B5FFF7DDFFBDE820404FF0F0
:1002900000064FF000074FF000084FF0000B21F070
:1002A0000701AC46ACE8C009ACE8C009ACE8C0093D
:1002B000ACE8C0098D46704710B50446AFF3008026
:1002C0002046BDE81040FFF7A8BF00000048704777
:1002D0000800002001491820ABBEFEE726000200FE
:1002E0007047000010B5012304220021134800F0DC
:1002F00027F9012304220021104800F04AF90123C4
:10030000052200210D4800F01BF9002305221946A3
:100310000A4800F03EF9012307220021074800F0B7
:100320000FF9002307221946044800F032F9002390
:1003300006221946014800F003F910BD00000240F2
:1003400070B5064680242AE006EA040030B900238E
:1003500007221946144800F01CF905E00123072282
:100360000021114800F015F90A2000F0CCF8012313
:10037000052200210C4800F00CF9062200210A4851
:1003800000F0FCF8012800D125430A2000F0BBF85A
:10039000002305221946044800F0FBF86410002CE5
:1003A000D2DC284670BD00000000024010B5434872
:1003B000006840F480304149086000BF3F48006851
:1003C00000F400300028F9D03C484030006840F08C
:1003D00080503A49403108603848006820F0807009
:1003E000364908603648006840F480403449086067
:1003F0003448006840F400703249086008460068DC
:1004000040F4806008600846006840F4807008602E
:100410000846006840F00500086028480830006879
:100420002649083108600846006840F4A05008607A
:100430000846006840F400400860081F0068224930
:1004400008431E49091D08600846006820F0100096
:1004500008600846006820F400500860081F006823
:1004600040F08070091F086000BF1448006800F069
:1004700000700028F9D011480830006840F00200F0
:100480000E490831086000BF0C480830006800F0D1
:100490000C000828F8D14FF0FF300121002804DBC0
:1004A0000A07130E094A135406E00A07140E084AF5
:1004B00000F00F031B1FD45400BF10BD00380240D2
:1004C00000700040003C02400854400000E400E09E
:1004D00018ED00E00548006840F47000034908602A
:1004E0004FF00060014980390860704788ED00E0F6
:1004F00000B5034604E04FF47A7000F004F85B1E88
:10050000002BF8D100BD18E08F214FF0E02251619F
:10051000002191611146096941F004011161114600
:10052000096941F00101116100BF4FF0E021096943
:1005300001F480310029F8D0401E0028E4D1704732
:1005400070B50D4C246801258D402C430A4D2C605C
:100550000468550003FA05F52C430460C468C460C0
:10056000012B07D144684460846856000325B540D8
:100570002C43846070BD00003038024030B5034623
:100580001C69012595402C400CB1012000E00020A1
:1005900030BD30B5012B05D14469012595402C4370
:1005A00044610DE02BB9446901259540AC43446199
:1005B00006E0022B04D14569012494406540456161
:1005C00030BD0000FFF7F2FEFFF78CFE002306228D
:1005D00019462B48FFF7B4FF01230C2203212948B9
:1005E000FFF7AEFF01230D2203212648FFF7A8FFE6
:1005F00001230E2203212348FFF7A2FF01230F222C
:1006000003212048FFF79CFF00230C2203211D48F3
:10061000FFF7BFFF00230D2203211A48FFF7B9FFA0
:1006200000230E2203211748FFF7B3FF00230F22F8
:1006300003211448FFF7ADFF20E0002304221946F0
:100640000F48FFF7A6FF00240DE00F49085DFFF7F4
:1006500077FE0E4908550846025D0223032109482A
:10066000FFF797FF641C042CEFDB01230422002119
:100670000348FFF78EFF6420FFF73AFFDDE7000035
:1006800000000240000C0240000000200400002096
:100690004FF04070E1EE100A70470000BC06000801
:1006A0000000002008000000C4010008C406000883
:1006B0000800002060060000E00100080C0D0E0F8D
:0406C0000000000036
:040000050800018965
:00000001FF
