:020000040800F2
:10000000600600200D020008150200081702000813
:10001000190200081B0200081D0200080000000071
:100020000000000000000000000000001F020008A7
:100030002102000800000000230200082502000839
:1000400027020008270200082702000827020008EC
:1000500027020008270200082702000827020008DC
:1000600027020008270200082702000827020008CC
:1000700027020008270200082702000827020008BC
:1000800027020008270200082702000827020008AC
:10009000270200082702000827020008270200089C
:1000A000270200082702000827020008270200088C
:1000B000270200082702000827020008270200087C
:1000C000270200082702000827020008270200086C
:1000D000270200082702000827020008270200085C
:1000E000270200082702000827020008270200084C
:1000F000270200082702000827020008270200083C
:10010000270200082702000827020008270200082B
:10011000270200082702000827020008270200081B
:10012000270200082702000827020008270200080B
:1001300027020008270200082702000827020008FB
:1001400027020008270200082702000827020008EB
:1001500027020008270200082702000827020008DB
:1001600027020008270200082702000827020008CB
:1001700027020008270200082702000800000000EC
:10018000270200082702000800F002F800F02EF80D
:100190000AA090E8000C82448344AAF10107DA45E2
:1001A00001D100F023F8AFF2090EBAE80F0013F006
:1001B000010F18BFFB1A43F0010318479004000019
:1001C000A00400000023002400250026103A28BFC8
:1001D00078C1FBD8520728BF30C148BF0B607047B9
:1001E0001FB500F02DFA1FBD10B510BD00F031F89D
:1001F0001146FFF7F5FF00F0D7F900F04FF803B410
:10020000FFF7F2FF03BC00F057F8000009488047F1
:1002100009480047FEE7FEE7FEE7FEE7FEE7FEE7E8
:10022000FEE7FEE7FEE7FEE704480549054A064B00
:1002300070470000B9040008890100086000002030
:1002400060060020600200206002002070477047B6
:100250007047754600F02CF8AE46050069465346D7
:1002600020F00700854618B020B5FFF7DDFFBDE898
:1002700020404FF000064FF000074FF000084FF00D
:10028000000B21F00701AC46ACE8C009ACE8C0099E
:10029000ACE8C009ACE8C0098D46704710B504460B
:1002A000AFF300802046BDE81040FFF7A8BF000074
:1002B000004870470000002001491820ABBEFEE74F
:1002C000260002007047000010B50123042200211F
:1002D000134800F027F9012304220021104800F000
:1002E0004AF90123052200210D4800F01BF90023E3
:1002F000052219460A4800F03EF901230722002191
:10030000074800F00FF9002307221946044800F0BF
:1003100032F9002306221946014800F003F910BD06
:100320000000024070B5064680242AE006EA040078
:1003300030B9002307221946144800F01CF905E0E3
:10034000012307220021114800F015F9322000F0A6
:10035000CCF80123052200210C4800F00CF90622FC
:1003600000210A4800F0FCF8012800D12543322082
:1003700000F0BBF8002305221946044800F0FBF802
:100380006410002CD2DC284670BD00000000024042
:1003900010B54348006840F480304149086000BF10
:1003A0003F48006800F400300028F9D03C48403055
:1003B000006840F080503A49403108603848006891
:1003C00020F08070364908603648006840F480406C
:1003D000344908603448006840F4007032490860CD
:1003E0000846006840F4806008600846006840F4F1
:1003F000807008600846006840F0050008602848E2
:10040000083000682649083108600846006840F452
:10041000A05008600846006840F400400860081FCB
:100420000068224908431E49091D08600846006803
:1004300020F0100008600846006820F400500860B2
:10044000081F006840F08070091F086000BF144852
:10045000006800F000700028F9D0114808300068EA
:1004600040F002000E490831086000BF0C48083017
:10047000006800F00C000828F8D14FF0FF3001218F
:10048000002804DB0A07130E094A135406E00A0782
:10049000140E084A00F00F031B1FD45400BF10BDF8
:1004A0000038024000700040003C02400854400008
:1004B00000E400E018ED00E00548006840F470003A
:1004C000034908604FF000600149803908607047B7
:1004D00088ED00E000B5034604E04FF47A7000F0C8
:1004E00004F85B1E002BF8D100BD18E0A7214FF0E7
:1004F000E0225161002191611146096941F0040136
:1005000011611146096941F00101116100BF4FF00D
:10051000E021096901F480310029F8D0401E00284B
:10052000E4D1704770B50D4C246801258D402C43F3
:100530000A4D2C600468550003FA05F52C4304604D
:10054000C468C460012B07D14468446084685600C5
:100550000325B5402C43846070BD00003038024054
:1005600030B503461C69012595402C400CB1012093
:1005700000E0002030BD30B5012B05D144690125D4
:1005800095402C4344610DE02BB944690125954009
:10059000AC43446106E0022B04D145690124944038
:1005A0006540456130BD00001CB5FFF7F1FEFFF767
:1005B0008BFE00231A4619461E48FFF7B3FF01239E
:1005C0000C2203211C48FFF7ADFF01230D2203215C
:1005D0001948FFF7A7FF01230E2203211648FFF752
:1005E000A1FF01230F2203211348FFF79BFF13A054
:1005F000006801901CE00023042219460D48FFF713
:10060000BAFF9DF80400FFF78DFE8DF8000001236E
:10061000042200210748FFF7AEFF9DF800200223C7
:1006200003210548FFF7A7FF4FF47A70FFF752FF49
:10063000E1E7000000000240000C02400C0D0E0F2C
:100640004FF04070E1EE100A704700005C060008B1
:0C0650000000002060060000C40100084B
:040000050800018965
:00000001FF
