:020000040800F2
:10000000600600201D0200082502000827020008E3
:10001000290200082B0200082D0200080000000041
:100020000000000000000000000000002F02000897
:100030003102000800000000330200083502000809
:1000400037020008370200083702000837020008AC
:10005000370200083702000837020008370200089C
:10006000370200083702000837020008370200088C
:10007000370200083702000837020008370200087C
:1000800037020008370200083702000800000000AD
:10009000000000000000000000000000370200081F
:1000A000370200083702000837020008370200084C
:1000B000370200083702000837020008370200083C
:1000C000370200083702000837020008370200082C
:1000D000370200083702000837020008000000005D
:1000E000370200083702000837020008000000004D
:1000F00000000000000000000000000037020008BF
:10010000000000003702000837020008370200082C
:1001100000000000000000000000000000000000DF
:1001200037020008370200083702000837020008CB
:10013000370200080000000000000000000000007E
:10014000000000000000000000000000370200086E
:10015000370200083702000837020008370200089B
:10016000370200083702000800000000000000000D
:10017000000000000000000000000000000000007F
:10018000000000003702000800000000000000002E
:10019000370200083702000800F002F800F02EF8DD
:1001A0000AA090E8000C82448344AAF10107DA45D2
:1001B00001D100F023F8AFF2090EBAE80F0013F0F6
:1001C000010F18BFFB1A43F001031847DC030000BE
:1001D000EC0300000023002400250026103A28BF6D
:1001E00078C1FBD8520728BF30C148BF0B607047A9
:1001F0001FB500F0D3F91FBD10B510BD00F031F8E8
:100200001146FFF7F5FF00F099F900F04FF803B43D
:10021000FFF7F2FF03BC00F057F8000009488047E1
:1002200009480047FEE7FEE7FEE7FEE7FEE7FEE7D8
:10023000FEE7FEE7FEE7FEE704480549054A064BF0
:100240007047000065040008990100086000002064
:1002500060060020600200206002002070477047A6
:100260007047754600F02CF8AE46050069465346C7
:1002700020F00700854618B020B5FFF7DDFFBDE888
:1002800020404FF000064FF000074FF000084FF0FD
:10029000000B21F00701AC46ACE8C009ACE8C0098E
:1002A000ACE8C009ACE8C0098D46704710B50446FB
:1002B000AFF300802046BDE81040FFF7A8BF000064
:1002C000004870470000002001491820ABBEFEE73F
:1002D000260002007047000010B5002304221946D2
:1002E0000D4800F0F5F80023052219460A4800F0F1
:1002F000EFF8002307221946074800F0E9F8012328
:1003000006220021044800F0E3F8002306221946E3
:10031000014800F0FBF810BD0000024010B54C4849
:10032000006840F480304A49086000BF48480068CF
:1003300000F400300028F9D045484030006840F013
:1003400080504349403108604148006820F0807087
:100350003F4908603F48006840F440403D4908601C
:100360003D48006840F400703B490860084600685A
:1003700040F4806008600846006840F480700860BF
:100380000846006840F00300086031480830006803
:100390002F49083108600846006840F48050086022
:1003A000084600680860081F006840F00400091F44
:1003B00008600846006840F440500860084600683D
:1003C00040F4803008600846006840F00060086033
:1003D0000846006840F4800008600846006820F085
:1003E000100008600846006820F080600860081F60
:1003F000006840F08070091F086000BF1448006862
:1004000000F000700028F9D011480830006840F072
:1004100002000F490831086000BF0D48083000682D
:1004200000F00C000828F8D14FF0FF30012100281F
:1004300004DB0A07130E094A135406E00A07140ED8
:10044000074A00F00F031B1FD45400BF10BD00006B
:100450000038024000700040003C024000E400E030
:1004600018ED00E00548006840F47000034908609A
:100470004FF00060014980390860704788ED00E066
:1004800000B5034604E04FF47A7000F004F85B1EF8
:10049000002BF8D100BD18E047214FF0E022516158
:1004A000002191611146096941F004011161114671
:1004B000096941F00101116100BF4FF0E0210969B4
:1004C00001F480310029F8D0401E0028E4D17047A3
:1004D00070B50D4C246801258D402C430A4D2C60CD
:1004E0000468550003FA05F52C430460C468C46031
:1004F000012B07D144684460846856000325B54049
:100500002C43846070BD00003038024030B5012BB0
:1005100005D14469012595402C4344610DE02BB978
:10052000446901259540AC43446106E0022B04D1A7
:100530004569012494406540456130BD08B5FFF729
:10054000EDFEFFF7C9FE01230C2203211148FFF73E
:10055000BFFF01230D2203210E48FFF7B9FF01233E
:100560000E2203210B48FFF7B3FF01230F220321C3
:100570000848FFF7ADFF08A00068009009E00223DB
:100580000C2203210348FFF7C1FF4FF47A70FFF7F5
:1005900077FFF4E7000C02400C0D0E0F4FF0407097
:1005A000E1EE100A70470000B805000800000020C6
:0805B00060060000D401000800
:040000050800019955
:00000001FF
