:020000040800F2
:10000000700600203902000841020008430200087F
:1000100045020008470200084902000800000000ED
:100020000000000000000000000000004B0200087B
:100030004D020008000000004F02000851020008B5
:10004000530200085302000853020008530200083C
:10005000530200085302000853020008530200082C
:10006000530200085302000853020008530200081C
:10007000530200085302000853020008530200080C
:100080005302000853020008530200080000000059
:100090000000000000000000000000005302000803
:1000A00053020008530200085302000853020008DC
:1000B00053020008530200085302000853020008CC
:1000C00053020008530200085302000853020008BC
:1000D0005302000853020008530200080000000009
:1000E00053020008530200085302000800000000F9
:1000F00000000000000000000000000053020008A3
:1001000000000000530200085302000853020008D8
:1001100000000000000000000000000000000000DF
:10012000530200085302000853020008530200085B
:100130005302000800000000000000000000000062
:100140000000000000000000000000005302000852
:10015000530200085302000853020008530200082B
:1001600053020008530200080000000000000000D5
:10017000000000000000000000000000000000007F
:100180000000000053020008000000000000000012
:10019000530200085302000800F002F800F03CF897
:1001A0000AA090E8000C82448344AAF10107DA45D2
:1001B00001D100F031F8AFF2090EBAE80F0013F0E8
:1001C000010F18BFFB1A43F0010318475404000045
:1001D00074040000103A24BF78C878C1FAD85207D6
:1001E00024BF30C830C144BF04680C6070470000B1
:1001F0000023002400250026103A28BF78C1FBD830
:10020000520728BF30C148BF0B6070471FB500F0D0
:1002100001FA1FBD10B510BD00F031F81146FFF70F
:10022000F5FF00F0B3F900F04FF803B4FFF7F2FF69
:1002300003BC00F057F80000094880470948004710
:10024000FEE7FEE7FEE7FEE7FEE7FEE7FEE7FEE786
:10025000FEE7FEE704480549054A064B70470000E3
:10026000ED040008990100087000002070060020CD
:10027000700200207002002070477047704775467A
:1002800000F02CF8AE4605006946534620F0070002
:10029000854618B020B5FFF7DDFFBDE820404FF0E0
:1002A00000064FF000074FF000084FF0000B21F060
:1002B0000701AC46ACE8C009ACE8C009ACE8C0092D
:1002C000ACE8C0098D46704710B50446AFF3008016
:1002D0002046BDE81040FFF7A8BF00000048704767
:1002E0000C00002001491820ABBEFEE726000200EA
:1002F0007047000010B50023042219460D4800F095
:1003000003F90023052219460A4800F0FDF80023EE
:1003100007221946074800F0F7F8012306220021BA
:10032000044800F0F1F800220621024800F015F917
:1003300010BD00000000024070B5064600BF042159
:10034000174800F0FFF80128F9D0802423E006EADE
:10035000040028B900220621114800F0FEF804E04C
:10036000012206210E4800F0F8F800BF05210C48D4
:1003700000F0E8F80028F9D00721094800F0E2F879
:10038000012800D1254300BF0521054800F0DAF817
:100390000128F9D06410002CD9DC284670BD00007B
:1003A0000000024010B54C48006840F480304A49D3
:1003B000086000BF4848006800F400300028F9D009
:1003C00045484030006840F0805043494031086063
:1003D0004148006820F080703F4908603F4800684D
:1003E00040F440403D4908603D48006840F40070DA
:1003F0003B4908600846006840F480600860084691
:10040000006840F4807008600846006840F003000F
:1004100008603148083000682F49083108600846F4
:10042000006840F480500860084600680860081FB3
:10043000006840F00400091F08600846006840F4A6
:10044000405008600846006840F480300860084664
:10045000006840F0006008600846006840F48000D2
:1004600008600846006820F0100008600846006830
:1004700020F080600860081F006840F08070091F4D
:10048000086000BF1448006800F000700028F9D030
:1004900011480830006840F002000F490831086038
:1004A00000BF0D480830006800F00C000828F8D1A3
:1004B0004FF0FF300121002804DB0A07130E094A20
:1004C000135406E00A07140E074A00F00F031B1F1F
:1004D000D45400BF10BD000000380240007000403E
:1004E000003C024000E400E018ED00E00548006830
:1004F00040F47000034908604FF000600149803902
:100500000860704788ED00E070B50D4C2468012547
:100510008D402C430A4D2C600468550003FA05F504
:100520002C430460C468C460012B07D14468446054
:10053000846856000325B5402C43846070BD0000DC
:100540003038024010B50246136901248C40234024
:100550000BB1012000E0002010BD10B5012A05D12B
:10056000436901248C40234343610DE02AB9436968
:1005700001248C40A343436106E0022A04D144696C
:1005800001238B405C40446110BD0000FFF70AFF6F
:10059000FFF7B0FE01230C2203211A48FFF7B4FF36
:1005A00001230D2203211748FFF7AEFF01230E227E
:1005B00003211448FFF7A8FF01230F22032111484C
:1005C000FFF7A2FF1CE01049104A1278885CFFF781
:1005D000B3FE0F490D4A1278885408460B4A127828
:1005E000815C02220748FFF7B8FF08480078401CEA
:1005F0000649087008460078042801D100200870D8
:10060000E1E70000000C0240040000200800002088
:10061000000000204FF04070E1EE100A704700002B
:1006200040060008000000200C000000D401000873
:100630004C0600080C00002064060000F0010008D1
:0C064000000000005C5D5E5F0000000038
:040000050800019955
:00000001FF
