:020000040800F2
:1000000068060020290200083102000833020008B7
:10001000350200083702000839020008000000001D
:100020000000000000000000000000003B0200088B
:100030003D020008000000003F02000841020008E5
:10004000430200084302000843020008430200087C
:10005000430200084302000843020008430200086C
:10006000430200084302000843020008430200085C
:10007000430200084302000843020008430200084C
:10008000430200084302000843020008430200083C
:10009000430200084302000843020008430200082C
:1000A000430200084302000843020008430200081C
:1000B000430200084302000843020008430200080C
:1000C00043020008430200084302000843020008FC
:1000D00043020008430200084302000843020008EC
:1000E00043020008430200084302000843020008DC
:1000F00043020008430200084302000843020008CC
:1001000043020008430200084302000843020008BB
:1001100043020008430200084302000843020008AB
:10012000430200084302000843020008430200089B
:10013000430200084302000843020008430200088B
:10014000430200084302000843020008430200087B
:10015000430200084302000843020008430200086B
:10016000430200084302000843020008430200085B
:100170004302000843020008430200080000000098
:10018000430200084302000800F002F800F03CF8C7
:100190000AA090E8000C82448344AAF10107DA45E2
:1001A00001D100F031F8AFF2090EBAE80F0013F0F8
:1001B000010F18BFFB1A43F001031847DC040000CD
:1001C000FC040000103A24BF78C878C1FAD852075E
:1001D00024BF30C830C144BF04680C6070470000C1
:1001E0000023002400250026103A28BF78C1FBD840
:1001F000520728BF30C148BF0B6070471FB500F0E1
:1002000045FA1FBD10B510BD00F031F81146FFF7DB
:10021000F5FF00F01DFA00F04FF803B4FFF7F2FF0E
:1002200003BC00F057F80000094880470948004720
:10023000FEE7FEE7FEE7FEE7FEE7FEE7FEE7FEE796
:10024000FEE7FEE704480549054A064B70470000F3
:1002500039050008890100086800002068060020B0
:10026000680200206802002070477047704775469A
:1002700000F02CF8AE4605006946534620F0070012
:10028000854618B020B5FFF7DDFFBDE820404FF0F0
:1002900000064FF000074FF000084FF0000B21F070
:1002A0000701AC46ACE8C009ACE8C009ACE8C0093D
:1002B000ACE8C0098D46704710B50446AFF3008026
:1002C0002046BDE81040FFF7A8BF00000048704777
:1002D0000800002001491820ABBEFEE726000200FE
:1002E0007047000010B5074C01230722194620462D
:1002F00000F054F901232046BDE8104006221946BB
:1003000000F04CB90004024070B5294C06460123A8
:1003100007221946204600F041F900230622012158
:10032000204600F06DF90025300601D4002300E0DE
:10033000012307220121204600F062F97006060E13
:10034000022000F013F9012306221946204600F08E
:1003500057F9022000F00AF9002306220121204665
:1003600000F04EF96D1CEDB2082DDDD301230722FC
:100370001946204600F044F901230622194620467A
:1003800000F03EF9052000F0F1F807220121204697
:1003900000F020F90128F8D0002306220121204690
:1003A00000F02EF9BDE87040052000F0DFB8000035
:1003B0000004024010B5164C0123072219462046BE
:1003C00000F01EF9012306221946204600F018F914
:1003D000052000F0CBF8002307220121204600F081
:1003E0000FF9012306221946204600F009F90520DD
:1003F00000F0BCF8002307220121204600F000F99C
:10040000204600230622BDE81040012100F0F8B884
:100410000004024010B5164C00230722012120469B
:1004200000F0EEF8002306220121204600F0E8F853
:10043000052000F09BF8002307220121204600F050
:10044000DFF8012306221946204600F0D9F80520DE
:1004500000F08CF8012307221946204600F0D0F85E
:1004600001232046BDE810400622194600F0C8B816
:10047000000402402B4810B5016841F4803101604E
:1004800001688903FCD5274940310A6842F080524F
:100490000A60016821F08071016023490A6842F412
:1004A00080420A6021490A6842F400720A600A68C0
:1004B00042F480620A600A6842F480720A600A6844
:1004C00042F005020A60174908310A680A600A68A2
:1004D00042F4A0520A600A6842F400420A600A1F0D
:1004E0001368134C23431360136823F01003136045
:1004F000136823F400531360026842F080720260B4
:1005000002689201FCD5086840F0020008600868A3
:10051000C0F381000228FAD10649102081F8140D99
:1005200010BD00000038024000700040003C024056
:10053000085440000FE000E00548016841F47001F4
:10054000016003494FF00060803908607047000087
:1005500088ED00E030B504464FF47A7503E0284694
:1005600000F004F8641E002CF9D130BD10B5002253
:100570004FF0E021A7230DE04B618A610C6944F044
:1005800004040C610C6944F001040C610C69E4037F
:10059000FCD5401E0028EFD110BD000070B50C4CFA
:1005A000256801268E40354325600468510003FA12
:1005B00001F214430460C268C260012B06D1426894
:1005C0004260826803238B401A43826070BD000042
:1005D0003038024030B5094B1D68012404FA01F19E
:1005E0000D431D6000210160C168C1600069944035
:1005F0002040012800D0002030BD000030380240EB
:1006000070B5124D2E68012404FA01F10E432E60DC
:10061000056851008C402543056044684460846847
:1006200003258D402C43846001219140012B05D08E
:100630003BB1022B08D142694A4004E042690A43B7
:1006400001E042698A43426170BD000030380240D7
:10065000FFF710FFFFF746FE0B4E4FF4FA7500242C
:10066000FFF7A8FE4E20FFF74FFE0020FFF74CFEDD
:10067000305DFFF749FEFFF7CDFE2846FFF76AFF22
:10068000641C082CECDBEAE7000000204FF040700F
:10069000E1EE100A70470000B806000800000020D4
:1006A00008000000C4010008C0060008080000207F
:1006B00060060000E00100081020304050607080AB
:040000050800018965
:00000001FF
