:020000040800F2
:1000000068060020290200083102000833020008B7
:10001000350200083702000839020008000000001D
:100020000000000000000000000000003B0200088B
:100030003D020008000000003F02000841020008E5
:10004000430200084302000843020008430200087C
:10005000430200084302000843020008430200086C
:10006000430200084302000843020008430200085C
:10007000430200084302000843020008430200084C
:10008000430200084302000843020008430200083C
:10009000430200084302000843020008430200082C
:1000A000430200084302000843020008430200081C
:1000B000430200084302000843020008430200080C
:1000C00043020008430200084302000843020008FC
:1000D00043020008430200084302000843020008EC
:1000E00043020008430200084302000843020008DC
:1000F00043020008430200084302000843020008CC
:1001000043020008430200084302000843020008BB
:1001100043020008430200084302000843020008AB
:10012000430200084302000843020008430200089B
:10013000430200084302000843020008430200088B
:10014000430200084302000843020008430200087B
:10015000430200084302000843020008430200086B
:10016000430200084302000843020008430200085B
:100170004302000843020008430200080000000098
:10018000430200084302000800F002F800F03CF8C7
:100190000AA090E8000C82448344AAF10107DA45E2
:1001A00001D100F031F8AFF2090EBAE80F0013F0F8
:1001B000010F18BFFB1A43F001031847A804000001
:1001C000C8040000103A24BF78C878C1FAD8520792
:1001D00024BF30C830C144BF04680C6070470000C1
:1001E0000023002400250026103A28BF78C1FBD840
:1001F000520728BF30C148BF0B6070471FB500F0E1
:100200002BFA1FBD10B510BD00F031F81146FFF7F5
:10021000F5FF00F005FA00F04FF803B4FFF7F2FF26
:1002200003BC00F057F80000094880470948004720
:10023000FEE7FEE7FEE7FEE7FEE7FEE7FEE7FEE796
:10024000FEE7FEE704480549054A064B70470000F3
:1002500041050008890100086800002068060020A8
:10026000680200206802002070477047704775469A
:1002700000F02CF8AE4605006946534620F0070012
:10028000854618B020B5FFF7DDFFBDE820404FF0F0
:1002900000064FF000074FF000084FF0000B21F070
:1002A0000701AC46ACE8C009ACE8C009ACE8C0093D
:1002B000ACE8C0098D46704710B50446AFF3008026
:1002C0002046BDE81040FFF7A8BF00000048704777
:1002D0000800002001491820ABBEFEE726000200FE
:1002E0007047000010B5074C01230722194620462D
:1002F00000F058F901232046BDE8104006221946B7
:1003000000F050B90004024070B51B4E05460123B1
:1003100007221946304600F045F9002206213046F2
:1003200000F06CF90024280601D4002200E001222C
:100330000721304600F062F96806050E022000F041
:1003400019F901220621304600F058F9022000F088
:1003500011F900220621304600F050F9641CE4B285
:10036000082CE0D300F00AF8012803D1BDE8704062
:1003700000F05AB870BD00000004024070B5144D82
:10038000002307220121284600F00CF90022062153
:10039000284600F033F9022000F0ECF80122062193
:1003A000284600F02BF90721284600F01FF90446E3
:1003B000022000F0DFF800220621284600F01EF996
:1003C000012307221946284600F0ECF8204670BDAC
:1003D0000004024010B5134C01220721204600F012
:1003E0000DF901220621204600F008F9052000F051
:1003F000C1F800220721204600F000F90122062161
:10040000204600F0FBF8052000F0B4F80022072198
:10041000204600F0F3F820460022BDE810400621F7
:1004200000F0ECB80004024010B5134C0022072184
:10043000204600F0E3F800220621204600F0DEF816
:10044000052000F097F800220721204600F0D6F89A
:1004500001220621204600F0D1F8052000F08AF89C
:1004600001220721204600F0C9F820460122BDE8FC
:100470001040062100F0C2B8000402402B4810B51D
:10048000016841F48031016001688903FCD5274986
:1004900040310A6842F080520A60016821F08071A0
:1004A000016023490A6842F480420A6021490A68CF
:1004B00042F400720A600A6842F480620A600A68C4
:1004C00042F480720A600A6842F005020A60174925
:1004D00008310A680A600A6842F4A0520A600A6891
:1004E00042F400420A600A1F1368134C234313604E
:1004F000136823F010031360136823F40053136090
:10050000026842F08072026002689201FCD50868BD
:1005100040F0020008600868C0F381000228FAD1A8
:100520000649102081F8140D10BD0000003802406B
:1005300000700040003C0240085440000FE000E022
:100540000548016841F47001016003494FF0006003
:10055000803908607047000088ED00E030B504463F
:100560004FF47A7503E0284600F004F8641E002C6E
:10057000F9D130BD10B500224FF0E021A7230DE0E6
:100580004B618A610C6944F004040C610C6944F00D
:1005900001040C610C69E403FCD5401E0028EFD176
:1005A00010BD000070B5104C266801258D402E430B
:1005B0002660C168C16054000122A2400321A1400D
:1005C000012B08D0002B05D1036893430360826898
:1005D0008A43826070BD03681343036042684260CF
:1005E00082680A43F5E700003038024000690122C2
:1005F0008A401040012800D00020704701238B4022
:10060000012A05D03AB1022A08D14169594004E0D3
:100610004169194301E04169994341617047000014
:10062000FFF72CFFFFF75EFE0A4E4FF4FA7500BF8E
:10063000FFF7D0FE4E20FFF767FE0024305DFFF786
:1006400063FE2846FFF78AFF641C042CF6DBFFF7E5
:10065000EBFEEDE7000000204FF04070E1EE100AE5
:100660007047000084060008000000200800000019
:10067000C40100088C060008080000206006000085
:0C068000E0010008102040800000000095
:040000050800018965
:00000001FF
