:020000040800F2
:1000000068060020290200083102000833020008B7
:10001000350200083702000839020008000000001D
:100020000000000000000000000000003B0200088B
:100030003D020008000000003F02000841020008E5
:10004000430200084302000843020008430200087C
:10005000430200084302000843020008430200086C
:10006000430200084302000843020008430200085C
:10007000430200084302000843020008430200084C
:10008000430200084302000843020008430200083C
:10009000430200084302000843020008430200082C
:1000A000430200084302000843020008430200081C
:1000B000430200084302000843020008430200080C
:1000C00043020008430200084302000843020008FC
:1000D00043020008430200084302000843020008EC
:1000E00043020008430200084302000843020008DC
:1000F00043020008430200084302000843020008CC
:1001000043020008430200084302000843020008BB
:1001100043020008430200084302000843020008AB
:10012000430200084302000843020008430200089B
:10013000430200084302000843020008430200088B
:10014000430200084302000843020008430200087B
:10015000430200084302000843020008430200086B
:10016000430200084302000843020008430200085B
:100170004302000843020008430200080000000098
:10018000430200084302000800F002F800F03CF8C7
:100190000AA090E8000C82448344AAF10107DA45E2
:1001A00001D100F031F8AFF2090EBAE80F0013F0F8
:1001B000010F18BFFB1A43F001031847DC040000CD
:1001C000FC040000103A24BF78C878C1FAD852075E
:1001D00024BF30C830C144BF04680C6070470000C1
:1001E0000023002400250026103A28BF78C1FBD840
:1001F000520728BF30C148BF0B6070471FB500F0E1
:1002000045FA1FBD10B510BD00F031F81146FFF7DB
:10021000F5FF00F011FA00F04FF803B4FFF7F2FF1A
:1002200003BC00F057F80000094880470948004720
:10023000FEE7FEE7FEE7FEE7FEE7FEE7FEE7FEE796
:10024000FEE7FEE704480549054A064B70470000F3
:1002500001050008890100086800002068060020E8
:10026000680200206802002070477047704775469A
:1002700000F02CF8AE4605006946534620F0070012
:10028000854618B020B5FFF7DDFFBDE820404FF0F0
:1002900000064FF000074FF000084FF0000B21F070
:1002A0000701AC46ACE8C009ACE8C009ACE8C0093D
:1002B000ACE8C0098D46704710B50446AFF3008026
:1002C0002046BDE81040FFF7A8BF00000048704777
:1002D0000400002001491820ABBEFEE72600020002
:1002E0007047000010B50123042200210A4800F0E5
:1002F00073F9002305221946074800F06DF9002321
:1003000007221946044800F067F90023062219461F
:10031000014800F02BF910BD0000024010B5002389
:100320000F2201210A4800F057F900230D22012174
:10033000074800F01BF900230F220121044800F0B8
:1003400015F900230C220121014800F00FF910BD1E
:100350000004024070B50446002634E004F080003A
:1003600030B9002307221946194800F035F905E095
:10037000012307220021164800F02EF90A2000F080
:10038000D8F8012305220021114800F025F90D229B
:100390000121104800F008F9012807D16806050E70
:1003A0000F2201210B4800F0FFF805430A2000F05E
:1003B000C0F8002305221946054800F00DF9600633
:1003C000040E701CC6B2082EC8DB284670BD0000A3
:1003D000000002400004024010B54348006840F4A9
:1003E00080304149086000BF3F48006800F4003099
:1003F0000028F9D03C484030006840F080503A492D
:10040000403108603848006820F080703649086044
:100410003648006840F48040344908603448006839
:1004200040F40070324908600846006840F480607B
:1004300008600846006840F480700860084600685C
:1004400040F0050008602848083000682649083157
:1004500008600846006840F4A0500860084600683C
:1004600040F400400860081F0068224908431E4904
:10047000091D08600846006820F010000860084662
:10048000006820F400500860081F006840F0807089
:10049000091F086000BF1448006800F000700028C1
:1004A000F9D011480830006840F002000E490831C8
:1004B000086000BF0C480830006800F00C000828F5
:1004C000F8D14FF0FF300121002804DB0A07130E9A
:1004D000094A135406E00A07140E084A00F00F03F5
:1004E0001B1FD45400BF10BD0038024000700040F4
:1004F000003C02400854400000E400E018ED00E039
:100500000548006840F47000034908604FF000603F
:10051000014980390860704788ED00E000B5034666
:1005200004E04FF47A7000F004F85B1E002BF8D161
:1005300000BD18E0A7214FF0E02251610021916138
:100540001146096941F0040111611146096941F040
:100550000101116100BF4FF0E021096901F4803110
:100560000029F8D0401E0028E4D1704770B50D4C2A
:10057000246801258D402C430A4D2C6004685500E9
:1005800003FA05F52C430460C468C460012B07D14D
:1005900044684460846856000325B5402C43846059
:1005A00070BD00003038024030B50346094C246865
:1005B00001258D402C43074D2C6000241C60DC6815
:1005C000DC601D690124944025400DB1012000E04C
:1005D000002030BD3038024070B5164C246801252B
:1005E0008D402C43134D2C60046856000125B54006
:1005F0002C43046044684460846856000325B54079
:100600002C438460012B05D1456901249440254386
:1006100045610DE02BB9446901259540AC43446127
:1006200006E0022B04D14469012595406C404461E9
:1006300070BD000030380240FFF7CEFEFFF752FEDB
:10064000FFF76CFE1AE00023042219460C48FFF75E
:10065000C3FF0C480078FFF77DFE0B4908700123AB
:10066000042200210648FFF7B7FF4FF47A70FFF726
:1006700055FF04480078801C02490870E3E7000039
:100680000000024000000020010000204FF04070F8
:10069000E1EE100A70470000B806000800000020D4
:1006A00004000000C4010008BC060008040000208B
:0C06B00064060000E001000805000000E6
:040000050800018965
:00000001FF
